:10080000092F0621074A074A082E092F092F06E15A
:10081000074A074A082E082E092F0000092F062133
:10082000074A074A082E082E092F092F0AEB0C4207
:100830000000092F082E06E1082E05750575062112
:10084000092F082E074A092F0621062106E1074A2B
:10085000082E092F082E074A092F06E10621074A0C
:10086000082E092F0000092F062106E10000082E9E
:100870000000082E0000082E0000082E0000082EA0
:100880000000082E0000082E0000082E0000082E90
:100890000000082E0000082E0000082E000006218F
:1008A00000000621000006210000062100000621AC
:1008B0000000062100000621000003700000037004
:1008C000000003700000037000000370000003705C
:1008D000000003700000092F0000092F0000082EFF
:1008E0000000082E0000082E0000082E0000082E30
:1008F0000000082E0000082E0000082E0000082E20
:100900000000082E0000082E0000082E000006211E
:10091000000006210000082E0000082E0000082E0E
:100920000000082E0000082E0000082E0000082EEF
:100930000000082E0000082E0000082E0000082EDF
:100940000000082E00000040002000200040002091
:100950000020002000400020002000200020002077
:100960000020002000200020002000200020002087
:100970000020004000400020001000100010001077
:100980000020002000400010001000100010002087
:1009900000200020001000200010001000100010A7
:1009A0000040002000300010002000200020004007
:1009B00000400020000800080008000800080008A7
:1009C00000080008001800080008000800080008D7
:1009D00000080008000800080008000800080008D7
:1009E00000180008000800080008000800080008B7
:1009F00000080008000800080008000800180008A7
:100A000000080008000800080008000800080008A6
:100A10000008000800080008001800080008000886
:100A20000008000800080008000800080008000886
:100A30000008000800180008000800080008000866
:100A40000008000800080008000800080008000866
:100A50000018000800080008000800080008000846
:100A60000008000800080008000800080018000836
:100A70000008000800080008000800080008000836
:100A800000080008000800080018002047444242FF
:100A90004241474743424241414723474442424142
:100AA0004147474544234741434145454447414227
:100AB000474444434241474142474344424147231C
:100AC00047444323536F6D65626F6479206F6E6393
:100AD0006520746F6C64206D652074686520776F85
:100AE000726C6420697320676F6E6E61206F77652A
:100AF000206D652C20492061696E2774207468651B
:100B000020736861727065737420746F6F6C2069F4
:100B10006E2074686520736865642E23004E6576C8
:100B2000657220676F6E6E61206769766520796FE8
:100B3000752075702C206E6576657220676F6E6EFD
:100B400061206C657420796F7520646F776E2E203C
:100B50004E6576657220676F6E6E612072756E20CD
:100B600061726F756E6420616E642C2064657365BC
:090B7000727420796F752E2300C8
:100B7900750C0175083A750998750D01750EF475AE
:100B89008921D2AFD2A9E4F5A453912FF584120E8D
:100B9900BEC287E50CB40108D2A4C2A7D2858025BC
:100BA900E50CB40208D2A4C285D2A78018E50CB41A
:100BB9000308D2A4C285C2A7800BE50CB40406C2FF
:100BC900A4D285D2A720A215C2A6E50CC3940440DD
:100BD90005E4F50C8002050C120EEBD2A620A11536
:100BE900C2A5E50CD394015005750C038002150CC0
:100BF900120EEBD2A5208399E50C640170587F533E
:100C0900120F417F4D120F417F41120F417F531245
:100C19000F417F48120F417F20120F417F4D120F64
:100C2900417F4F120F417F55120F417F54120F41DF
:100C39007F48120F417F20120F41E4F513750B20F5
:100C4900E50B6423600A900AC4120F3B051380F078
:100C59007D18E4FF8052E50C640270557F52120F33
:100C6900417F49120F417F43120F417F4B120F41C0
:100C79007F20120F417F52120F417F4F120F417F88
:100C89004C120F417F4C120F417F20120F41E4F5A6
:100C990013750B20E50B6423600A900B1D120F3BA3
:100CA900051380F07D367F19120D06120EEB020B2B
:100CB9009AE50CB4030FD285D2A7D287120EEB1294
:100CC9000E18020B9AE50C64046003020B9AD2A475
:100CD900D2877F44120F417F41120F417F52120F79
:100CE900417F55120F417F44120F417F45120F4139
:0D0CF9007DA27F37120D06120EEB020B9A42
:100E18007F01C286C296C284EF605A30820E309437
:100E28000B308008C28CC286C296C284208210759C
:100E38000F1275105E751100751205D28CD28620BE
:100E48009410750F0975102F751100751205D28C45
:100E5800D296208010750F047510977511007512C1
:100E680005D28CD2842083B0D286D296D284120E38
:050E7800EBE4FF80A384
:010E7D002252
:040EEB00AF09AE0895
:100EEF00E4FDFCC3ED9FEC9E5015E4FBFA0BBB0039
:0F0EFF00010AEB64054A70F50DBD00010C80E49B
:010F0E0022C0
:100EBE005387BF75985053877FE4F5BA43A240F528
:100ECE00BD75BEF075BF0275BD03759102759201B9
:0D0EDE00C20075B80175B701D2ACD2AF22C9
:03002300020F4980
:0D0F4900309802C298309904C299C200325B
:060F3B00E51393F50BFF26
:080F41002000FDD2008F99226F
:100D06008D148F0AE50AD395144003020E17E50CDD
:100D1600B40106C2A7D2858014E50CB40206C285CA
:100D2600D2A78009E50CB40304C285C2A720A2128B
:100D3600C2A6E50CC394034005E4F50C8002050C3D
:100D4600D2A620A112C2A5E50CD394015005750CBC
:100D5600038002150CD2A57FC87E00120EEF75F037
:100D660002E50AA42400F582E5F03408F583E4934D
:100D7600FE740193FF4E604F8E0F8F1075F002E5E3
:100D86000AA42446F582E5F03409F583E493FE745B
:100D96000193FFAC0DAD0E120F298E118F12E50CCB
:100DA600B40107E50A900A8C800AE50CB4020AE54C
:100DB6000A900AA693FF120E7ED28CAF12AE1112C3
:100DC6000EEF120F62804575F002E50AA42400F5C5
:100DD60082E5F03408F5837401937002E493702A77
:100DE600C28C75F002E50AA42446F582E5F03409C2
:100DF600F583E493F511740193F512AE11FF7C01AE
:100E06007D90120F29120EEF8002C28C050A020D88
:020E16000A22AE
:070F6200D286D296D2842250
:100E7E00BF4106D286D296C284BF4206D286C296A1
:100E8E00D284BF4306D286C296C284BF4406C286AF
:100E9E00D296D284BF4506C286D296C284BF46067B
:100EAE00C286C296D284BF4706C286C296C284222A
:03000B00020F0FD2
:100F0F00C0E0C0D0B297C3E49510E4950FF58CE51F
:0A0F1F0010F404F58AD0D0D0E032BF
:03000000020F5696
:0C0F5600787FE4F6D8FD758120020B794D
:100F2900EF8DF0A4A8F0CF8CF0A428CE8DF0A42EDC
:020F3900FE2296
:00000001FF
