:10080000092F0621074A074A082E092F092F06E15A
:10081000074A074A082E082E092F0000092F062133
:10082000074A074A082E082E092F092F0AEB0C4207
:100830000000092F082E06E1082E05750575062112
:10084000092F082E074A092F0621062106E1074A2B
:10085000082E092F082E074A092F06E10621074A0C
:10086000082E092F0000092F062106E10000082E9E
:100870000000082E0000082E0000082E0000082EA0
:100880000000082E0000082E0000082E0000082E90
:100890000000082E0000082E0000082E000006218F
:1008A00000000621000006210000062100000621AC
:1008B0000000062100000621000003700000037004
:1008C000000003700000037000000370000003705C
:1008D000000003700000092F0000092F0000082EFF
:1008E0000000082E0000082E0000082E0000082E30
:1008F0000000082E0000082E0000082E0000082E20
:100900000000082E0000082E0000082E000006211E
:10091000000006210000082E0000082E0000082E0E
:100920000000082E0000082E0000082E0000082EEF
:100930000000082E0000082E0000082E0000082EDF
:100940000000082E00000DC2092F06E105C906E1CE
:10095000074A06E1062106E1092F0B920DC20C425F
:100960000B9209BA092F0B920DC20E94105D0DC2A5
:100970000C420DC20040002000200040002000205A
:100980000020004000200020002000200020002047
:100990000020002000200020002000200020002057
:1009A0000040004000200010001000100010002047
:1009B0000020004000100010001000100020002057
:1009C0000020001000200010001000100010004057
:1009D00000200030001000200020002000400040D7
:1009E00000200008000800080008000800080008AF
:1009F00000080018000800080008000800080008A7
:100A00000008000800080008000800080008001896
:100A10000008000800080008000800080008000896
:100A20000008000800080008000800180008000876
:100A30000008000800080008000800080008000876
:100A40000008000800080018000800080008000856
:100A50000008000800080008000800080008000856
:100A60000008001800080008000800080008000836
:100A70000008000800080008000800080008001826
:100A80000008000800080008000800080008000826
:100A90000008000800080008000800180008000806
:100AA0000008000800080008000800080008000806
:100AB0000008000800080018002000200020002086
:100AC00000200040004000200020004000200020C6
:100AD00000200020002000200040002000200020F6
:100AE0000020002000400040004047444242424174
:100AF00047474342424141472347444242414147DD
:100B000047454423536F6D65626F6479206F6E6350
:100B10006520746F6C64206D652074686520776F44
:100B2000726C6420697320676F6E6E61206F7765E9
:100B3000206D652C20492061696E277420746865DA
:100B400020736861727065737420746F6F6C2069B4
:100B50006E2074686520736865642E23004E657688
:100B6000657220676F6E6E61206769766520796FA8
:100B7000752075702C206E6576657220676F6E6EBD
:100B800061206C657420796F7520646F776E2E20FC
:100B90004E6576657220676F6E6E612072756E208D
:100BA00061726F756E6420616E642C20646573657C
:090BB000727420796F752E230088
:100BB900750C0175083A750998750D01750EF4756E
:100BC9008921D2AFD2A9E4F5A453912FF584120F4C
:100BD9005FC287E50CB40108D2A4C2A7D2858032CE
:100BE900E50CB40208D2A4C285D2A78025E50CB4CD
:100BF9000308D2A4C285C2A78018E50CB40408C2B0
:100C0900A4D285D2A7800BE50CB40506C2A4D2856F
:100C1900C2A720A215C2A6E50CC394054005E4F5B8
:100C29000C8002050C120F8CD2A620A115C2A5E5D5
:100C39000CD394015005750C058002150C120F8C0C
:100C4900D2A520838CE50C640170597F53120FE201
:100C59007F4D120FE27F41120FE27F53120FE27FA5
:100C690048120FE27F20120FE27F4D120FE27F4FF1
:100C7900120FE27F55120FE27F54120FE27F4812E2
:100C89000FE27F20120FE2E4F513750B20E50B64E8
:100C990023600A900B04120FDC051380F07D18E421
:100CA900FF020D46E50C6402704E7F52120FE27F7F
:100CB90049120FE27F43120FE27F4B120FE27F20AE
:100CC900120FE27F52120FE27F4F120FE27F4C1296
:100CD9000FE27F4C120FE27F20120FE2E4F5137549
:100CE9000B20E50B6423600A900B5D120FDC0513E2
:100CF90080F07D367F198045E50CB4030FD285D28B
:100D0900A7D287120F8C120EB9020BDAE50C640414
:100D19007031D2A4D2877F44120FE27F41120FE2D1
:100D29007F52120FE27F55120FE27F44120FE27FCA
:100D390045120FE27F20120FE27DA27F37120DA824
:100D4900020BDAE50C64056003020BDAD2A4D2A720
:100D5900D2877F42120FE27F4F120FE27F4E120FAE
:100D6900E27F45120FE27F53120FE27F54120FE226
:100D79007F52120FE27F4F120FE27F55120FE27F6F
:100D890053120FE27F4C120FE27F45120FE27F20D0
:0F0D9900120FE27DB97FA3120DA8C28C020BDAF4
:100EB9007F01C286C296C284EF605A30820E309496
:100EC9000B308008C28CC286C296C28420821075FB
:100ED9000F1075105D751100751205D28CD2862020
:100EE9009410750F0875102E751100751205D28CA6
:100EF900D296208010750F047510177511007512A0
:100F090005D28CD2842083B0D286D296D284120F95
:050F19008CE4FF80A341
:010F1E0022B0
:040F8C00AF09AE08F3
:100F9000E4FDFCC3ED9FEC9E5015E4FBFA0BBB0097
:0F0FA000010AEB64054A70F50DBD00010C80E4F9
:010FAF00221F
:100F5F005387BF75985053877FE4F5BA43A240F586
:100F6F00BD75BEF075BF0275BD0375910275920117
:0D0F7F00C20075B80175B701D2ACD2AF2227
:03002300020FEADF
:0D0FEA00309802C298309904C299C20032BA
:060FDC00E51393F50BFF85
:080FE2002000FDD2008F9922CE
:100DA8008D148F0AE50AD395144003020EB8E50C9A
:100DB800B40108D2A4C2A7D2858032E50CB40208D7
:100DC800D2A4C285D2A78025E50CB40308D2A4C258
:100DD80085C2A78018E50CB40408C2A4D285D2A79E
:100DE800800BE50CB40506C2A4D285C2A720A212C6
:100DF800C2A6E50CC394054005E4F50C8002050C79
:100E0800D2A67FC87E00120F9075F002E50AA424CE
:100E180000F582E5F03408F583E493FE740193FF4E
:100E28004E60438E0F8F1075F002E50AA42474F506
:100E380082E5F03409F583E493FE740193FFAC0D69
:100E4800AD0E120FCA8E118F12E50CB4010AE50A15
:100E5800900AEA93FF120F1FD28CAF12AE11120F35
:100E680090121003804575F002E50AA42400F5826B
:100E7800E5F03408F5837401937002E493702AC294
:100E88008C75F002E50AA42474F582E5F03409F5BE
:100E980083E493F511740193F512AE11FF7C017D83
:100EA80090120FCA120F908002C28C050A020DAC74
:010EB8002217
:07100300D286D296D28422AE
:100F1F00BF4106D286D296C284BF4206D286C296FF
:100F2F00D284BF4306D286C296C284BF4406C2860D
:100F3F00D296D284BF4506C286D296C284BF4606D9
:100F4F00C286C296D284BF4706C286C296C2842288
:03000B00020FB031
:100FB000C0E0C0D0B297C3E49510E4950FF58CE57E
:0A0FC00010F404F58AD0D0D0E0321E
:03000000020FF7F5
:0C0FF700787FE4F6D8FD758120020BB96C
:100FCA00EF8DF0A4A8F0CF8CF0A428CE8DF0A42E3B
:020FDA00FE22F5
:00000001FF
