:100A930003A5041704970370052706E106210575CE
:100AA3000E9415D7105D092F18840C420DC21B85B7
:100AB300125E0AEB22AC24BC1D280A4E031003DC91
:100AC300045504DD07B8082E074A067E05C90F72D0
:100AD3001724115608AB19F90CFC149D1EE4137569
:0A0AE3000B92293C2BAF20BA09BA90
:040BEE00020E02BC35
:10080000750D017508037509E8E4F5A453912FF5FA
:1008100084120B62C287E50DB40106C2A7D285809F
:1008200014E50DB40206C285D2A78009E50DB40314
:1008300004C285C2A720A215C2A6E50DC394034039
:1008400005E4F50D8002050D120BB5D2A620A11509
:10085000C2A5E50DD394015005750D038002150D59
:10086000120BB5D2A52083ACE50D64017043C2A480
:100870007F53120BE67F4D120BE67F41120BE67F92
:1008800053120BE67F48120BE67F20120BE67F4DDA
:10089000120BE67F4F120BE67F55120BE67F5412C8
:1008A0000BE67F48120BE67F20120BE6D2A402086B
:1008B00014E50D640270357F52120BE67F49120B6E
:1008C000E67F43120BE67F4B120BE67F20120BE60E
:1008D0007F52120BE67F4F120BE67F4C120BE67F26
:1008E0004C120BE67F20120BE6020814E50D6403A0
:1008F0006003020814D285D2A7D287120BB5120A60
:04090000ED020814E8
:100AED00751401C286C296C284E514603520820950
:100AFD00D2867D07120B30C286209409D2967D05D1
:100B0D00120B30C296208009D2847D03120B30C2A5
:100B1D00842083D5D286D296D284120BB5E4F514F7
:020B2D0080C77F
:010B2F0022A3
:060B30007C007F057E0041
:080B36008E158F168C178D1827
:100B3E00E4F519F51AC3E51A9516E519951550132E
:100B4E00B297AF18AE17120BB9051AE51A70E60573
:030B5E001980E219
:010B61002271
:040BB500AF09AE08CE
:100BB900E4FDFCC3ED9FEC9E5015E4FBFA0BBB0072
:0F0BC900010AEB64054A70F50DBD00010C80E4D4
:010BD80022FA
:100B62005387BF75985053877FE4F5BA43A240D2AA
:100B7200AFD2AB758921758DFDD28E7591027592BA
:0E0B820001C20075B80175B701D2ACD2AF2226
:03002300020BD9F4
:0D0BD900309802C298309904C299C20032CF
:080BE6002000FDD2008F9922CE
:020990008F1BBB
:10099200ED700C850E1C850F1DF51EF51F801CAF1A
:1009A20005EF3395E0FEFDFCE47B24FAF9F8120A28
:1009B200448E1C8F1D751E00751F14AF1BEF3395DF
:1009C200E0FEEF25E0FFEE33FE74932FF9740A3E4A
:1009D200FA7BFF8B0AF50B890C120A1945F0601E8F
:1009E200AB0A120A19FDACF0C3E49DE49CFF3395F7
:1009F200E08F8CAF05EFF404F58AD28CD2A9AF1D3B
:100A0200AE1C120B90C2A9C28CE51F451E6007AF37
:060A12001FAE1E120B9046
:010A180022BB
:100B9000EF1FAA0670011ED39400EA64809480407F
:100BA00013E4FCFDC3ED94FAEC940050E30DBD009A
:040BB000010C80F0C4
:010BB400221E
:03000000020904EE
:0C090400787FE4F6D8FD75812002094BD5
:100A1900BB010A89828A83E0F5F0A3E022500687A8
:100A2900F009E71922BBFE07E3F5F009E31922896A
:0B0A3900828A83E493F5F0740193229D
:100A4400E88FF0A4CC8BF0A42CFCE98EF0A42CFC51
:100A54008AF0EDA42CFCEA8EF0A4CDA8F08BF0A4CF
:100A64002DCC3825F0FDE98FF0A42CCD35F0FCEB2E
:100A74008EF0A4FEA9F0EB8FF0A4CFC5F02ECD39F3
:0F0A8400FEE43CFCEAA42DCE35F0FDE43CFC2260
:10091000020800E493A3F8E493A34003F68001F2F5
:1009200008DFF48029E493A3F85407240CC8C333E8
:10093000C4540F4420C8834004F456800146F6DFB7
:10094000E4800B0102040810204080900BEEE47E4E
:10095000019360BCA3FF543F30E509541FFEE493AC
:10096000A360010ECF54C025E060A840B8E493A373
:10097000FAE493A3F8E493A3C8C582C8CAC583CA9E
:10098000F0A3C8C582C8CAC583CADFE9DEE780BE56
:010BF2000002
:00000001FF
