:10080000750A017508037509E8E4F5A453912FF5FD
:1008100084750B41120972C287E50AB40106C2A7AA
:10082000D2858014E50AB40206C285D2A78009E504
:100830000AB40304C285C2A720A215C2A6E50AC352
:1008400094034005E4F50A8002050A1209A0D2A625
:1008500020A115C2A5E50AD394015005750A0380AD
:1008600002150A1209A0D2A52083ACE50A64017022
:100870003EC2A47F531209DD7F4D1209DD7F411274
:1008800009DD7F531209DD7F481209DD7F2012093F
:10089000DD7F4D1209DD7F4F1209DD7F551209DD25
:1008A0007F541209DD7F481209DDD2A4020817E542
:1008B0000A640270307F521209DD7F491209DD7F20
:1008C000431209DD7F4B1209DD7F201209DD7F52C3
:1008D0001209DD7F4F1209DD7F4C1209DD7F4C12BA
:1008E00009DD020817E50A64036003020817D285D0
:0D08F000D2A7D2871209A01208FD02081736
:1008FD00751001C286C296C284E51060352082094A
:10090D00D2867D07120940C286209409D2967D05B4
:10091D00120940C296208009D2847D03120940C27B
:10092D00842083D5D286D296D2841209A0E4F51004
:02093D0080C771
:01093F002295
:060940007C007F057E0033
:080946008E118F128C138D1429
:10094E00E4F515F516C3E5169512E5159511501338
:10095E00B297AF14AE131209A40516E51670E6058C
:03096E001580E20F
:010971002263
:0409A000AF09AE08E5
:1009A400E4FDFCC3ED9FEC9E5015E4FBFA0BBB0089
:0F09B400010AEB64054A70F50DBD00010C80E4EB
:0109C3002211
:100972005387BF75985053877FE4F5BA43A240D29C
:10098200AFD2AB758921758DFDD28E7591027592AC
:0E09920001C20075B80175B701D2ACD2AF2218
:030023000209C40B
:0D09C400309802C298309904C299C20032E6
:0809DD002000FDD2008F9922D9
:030000000209D121
:0C09D100787FE4F6D8FD75812002080054
:00000001FF
