:0309A800010F013B
:10088C00E4F5A453912FF584E50FB40106C2A7D269
:10089C00858014E50FB40206C285D2A78009E50F46
:1008AC00B40304C285C2A720A219C2A6E50FC39443
:1008BC00034005E4F50F8002050F7F207E0312092B
:1008CC0088D2A620A119C2A5E50FD39401500575B5
:1008DC000F038002150F7F207E03120988D2A520FA
:1008EC0083A6E50F640160A0E50F6402609AE50F32
:1008FC0064037094D285D2A77F64FE120988120912
:03090C000F8085D4
:10090F00750801C286C296C284E508603920820943
:10091F00D2867D07120956C286209409D2967D058C
:10092F00120956C296208009D2847D03120956C23D
:10093F00842083D5D286D296D2847F647E0012091A
:06094F0088E4F50880C3F6
:01095500227F
:060956007C007F057E001D
:08095C008E098F0A8C0B8D0C33
:10096400E4F50DF50EC3E50E950AE50D9509501352
:10097400B297AF0CAE0B120988050EE50E70E605B2
:030984000D80E201
:01098700224D
:10098800E4FDFCC3ED9FEC9E5015E4FBFA0BBB00A5
:0F099800010AEB64C84A70F50DBD00010C80E444
:0109A700222D
:03000000020800F3
:0C080000787FE4F6D8FD758113020847EC
:10080C0002088CE493A3F8E493A34003F68001F26E
:10081C0008DFF48029E493A3F85407240CC8C333ED
:10082C00C4540F4420C8834004F456800146F6DFBC
:10083C00E4800B01020408102040809009A8E47E9B
:10084C00019360BCA3FF543F30E509541FFEE493B1
:10085C00A360010ECF54C025E060A840B8E493A378
:10086C00FAE493A3F8E493A3C8C582C8CAC583CAA3
:10087C00F0A3C8C582C8CAC583CADFE9DEE780BE5B
:0109AB00004B
:00000001FF
