:10080000750F01E4F5A453912FF584751041120979
:100810000FC2877F41120976E50FB40106C2A7D245
:10082000858014E50FB40206C285D2A78009E50FC2
:10083000B40304C285C2A720A219C2A6E50FC394BF
:10084000034005E4F50F8002050F7F2C7E0112099D
:100850003DD2A620A119C2A5E50FD394015005757C
:100860000F038002150F7F2C7E0112093DD2A520B7
:10087000839FE50F64016099E50F64026093E50FC3
:100880006403708DD285D2A7D2877F64FE12093DA2
:0608900012089602081197
:10089600750801C286C296C284E5086039208209BD
:1008A600D2867D071208DDC286209409D2967D0580
:1008B6001208DDC296208009D2847D031208DDC2AB
:1008C600842083D5D286D296D2847F647E00120994
:0608D6003DE4F50880C3BB
:0108DC0022F9
:0608DD007C007F057E0097
:0808E3008E098F0A8C0B8D0CAD
:1008EB00E4F50DF50EC3E50E950AE50D95095013CC
:1008FB00B297AF0CAE0B12093D050EE50E70E60577
:03090B000D80E27A
:01090E0022C6
:10093D00E4FDFCC3ED9FEC9E5015E4FBFA0BBB00F0
:0F094D00010AEB64C84A70F50DBD00010C80E48F
:01095C002278
:10090F005387BF75985053877FE4F5BA43A240D2FF
:10091F00AFD2AB758921758DFDD28E75910275920F
:0E092F0001C20075B80175B701D2ACD2AF227B
:0300230002095D72
:0D095D00309802C298309904C299C200324D
:0A097600200006D200D2998F9922CA
:0300000002096A88
:0C096A00787FE4F6D8FD758120020800BB
:00000001FF
