:100A900003A5041704970370052706E106210575D1
:100AA0000E9415D7105D092F18840C420DC21B85BA
:100AB000125E0AEB22AC24BC1D280A4E031003DC94
:100AC000045504DD07B8082E074A067E05C90F72D3
:100AD0001724115608AB19F90CFC149D1EE413756C
:0A0AE0000B92293C2BAF20BA09BA93
:040BEB00020E02BC38
:10080000750D017508037509E8E4F5A453912FF5FA
:1008100084120B5FC2877D647F0212098DE50DB4DF
:100820000106C2A7D2858014E50DB40206C285D2A6
:10083000A78009E50DB40304C285C2A720A215C292
:10084000A6E50DC394034005E4F50D8002050D12E5
:100850000BB2D2A620A115C2A5E50DD39401500577
:10086000750D038002150D120BB2D2A52083A5E5EC
:100870000D6401703EC2A47F53120BE37F4D120B37
:10088000E37F41120BE37F53120BE37F48120BE32C
:100890007F20120BE37F4D120BE37F4F120BE37FA0
:1008A00055120BE37F54120BE37F48120BE3D2A4E3
:1008B000020814E50D640270307F52120BE37F4989
:1008C000120BE37F43120BE37F4B120BE37F2012EB
:1008D0000BE37F52120BE37F4F120BE37F4C120BA3
:1008E000E37F4C120BE3020814E50D64036003027E
:1008F0000814D285D2A7D287120BB2120AEA0208D4
:0109000014E2
:100AEA00751401C286C296C284E514603520820953
:100AFA00D2867D07120B2DC286209409D2967D05D7
:100B0A00120B2DC296208009D2847D03120B2DC2AE
:100B1A00842083D5D286D296D284120BB2E4F514FD
:020B2A0080C782
:010B2C0022A6
:060B2D007C007F057E0044
:080B33008E158F168C178D182A
:100B3B00E4F519F51AC3E51A9516E5199515501331
:100B4B00B297AF18AE17120BB6051AE51A70E60579
:030B5B001980E21C
:010B5E002274
:040BB200AF09AE08D1
:100BB600E4FDFCC3ED9FEC9E5015E4FBFA0BBB0075
:0F0BC600010AEB64054A70F50DBD00010C80E4D7
:010BD50022FD
:100B5F005387BF75985053877FE4F5BA43A240D2AD
:100B6F00AFD2AB758921758DFDD28E7591027592BD
:0E0B7F0001C20075B80175B701D2ACD2AF2229
:03002300020BD6F7
:0D0BD600309802C298309904C299C20032D2
:080BE3002000FDD2008F9922D1
:02098D008F14C5
:10098F00ED700C850E15850F16F517F518801CAF39
:10099F0005EF3395E0FEFDFCE47B24FAF9F8120A2B
:1009AF00418E158F16751700751814AF14EF339508
:1009BF00E0FEEF25E0FFEE33FE74902FF9740A3E50
:1009CF00FA7BFF8B0AF50B890C120A1645F0601E95
:1009DF00AB0A120A16FDACF0C3E49DE49CFF3395FD
:1009EF00E08F8CAF05EFF404F58AD28CD2A9AF1645
:1009FF00AE15120B8DC2A9C28CE51845176007AF53
:060A0F0018AE17120B8D5A
:010A150022BE
:100B8D00EF1FAA0670011ED39400EA648094804082
:100B9D0013E4FCFDC3ED94FAEC940050E30DBD009D
:040BAD00010C80F0C7
:010BB1002221
:03000000020901F1
:0C090100787FE4F6D8FD758120020948DB
:100A1600BB010A89828A83E0F5F0A3E022500687AB
:100A2600F009E71922BBFE07E3F5F009E31922896D
:0B0A3600828A83E493F5F074019322A0
:100A4100E88FF0A4CC8BF0A42CFCE98EF0A42CFC54
:100A51008AF0EDA42CFCEA8EF0A4CDA8F08BF0A4D2
:100A61002DCC3825F0FDE98FF0A42CCD35F0FCEB31
:100A71008EF0A4FEA9F0EB8FF0A4CFC5F02ECD39F6
:0F0A8100FEE43CFCEAA42DCE35F0FDE43CFC2263
:10090D00020800E493A3F8E493A34003F68001F2F8
:10091D0008DFF48029E493A3F85407240CC8C333EB
:10092D00C4540F4420C8834004F456800146F6DFBA
:10093D00E4800B0102040810204080900BEBE47E54
:10094D00019360BCA3FF543F30E509541FFEE493AF
:10095D00A360010ECF54C025E060A840B8E493A376
:10096D00FAE493A3F8E493A3C8C582C8CAC583CAA1
:10097D00F0A3C8C582C8CAC583CADFE9DEE780BE59
:010BEF000005
:00000001FF
