:10080000092F0621074A074A082E092F092F06E15A
:10081000074A074A082E082E092F0000092F062133
:10082000074A074A082E082E092F092F0AEB0C4207
:100830000000474442424241474743424241414708
:10084000234744424241414747454423004000205A
:100850000020004000200020002000400020002058
:100860000020002000200020002000200020002088
:100870000020002000200020004000400020536F96
:100880006D65626F6479206F6E636520746F6C6450
:10089000206D652074686520776F726C64206973C1
:1008A00020676F6E6E61206F7765206D652C204923
:1008B0002061696E277420746865207368617270A6
:1008C00065737420746F6F6C20696E207468652086
:1008D000736865642E2300092F082E06E1082E0593
:1008E0007505750621092F082E074A092F062106CE
:1008F0002106E1074A082E092F082E074A092F066C
:10090000E10621074A082E092F0000092F062106BB
:10091000E100004741434145454447414247444483
:1009200043424147414247434442414723474443AE
:10093000004E6576657220676F6E6E61206769761E
:100940006520796F752075702C206E657665722034
:10095000676F6E6E61206C657420796F7520646FAF
:10096000776E2E204E6576657220676F6E6E612001
:1009700072756E2061726F756E6420616E642C20DA
:1009800064657365727420796F752E230000100002
:100990001000100010002000200040001000100087
:1009A0001000100020002000200010002000100087
:1009B0001000100010004000200030001000200047
:1009C000200020004000400020082E082E082E089D
:1009D0002E082E082E082E082E082E082E082E0867
:1009E0002E062106210621062106210621062103C5
:1009F00070037003700370037003700370092F0994
:100A00002F082E082E082E082E082E082E082E0835
:100A10002E082E082E082E082E06210621082E0844
:100A20002E082E082E082E082E082E082E082E0816
:100A30002E082E082E0008000800080008001800E4
:100A40000800080008000800080008001800080056
:100A50000800080008000800080018000800080046
:100A60000800080008000800180008000800080036
:100A70000800080008001800080008000800080026
:100A80000800080018000800080008000800080016
:100A90000800180008000800080008000800080006
:010AA000183D
:100AA100750C0175083A750998750D01750EF47587
:100AB1008921D2AFD2A9E4F5A453912FF584750F02
:100AC10041120F8AC287E50CB40108D2A4C2A7D291
:100AD100858025E50CB40208D2A4C285D2A780186E
:100AE100E50CB40308D2A4C285C2A7800BE50CB4FF
:100AF1000406C2A4D285D2A720A219C2A6E50CC3BE
:100B010094044005E4F50C8002050CAF09AE08120F
:100B11000F6AD2A620A119C2A5E50CD394015005F4
:100B2100750C038002150CAF09AE08120F6AD2A52D
:100B3100208391E50C640170417F53120FE97F4DD1
:100B4100120FE97F41120FE97F53120FE97F48121B
:100B51000FE97F20120FE97F4D120FE97F4F120F2E
:100B6100E97F55120FE97F54120FE97F48120FE90F
:100B71007F20120FE9120D08803BE50C6402703FE3
:100B81007F52120FE97F49120FE97F43120FE97F6C
:100B91004B120FE97F20120FE97F52120FE97F4FAD
:100BA100120FE97F4C120FE97F4C120FE97F2012DF
:100BB1000FE9120C09AF09AE08120F6A020AC5E566
:100BC1000CB40313D285D2A7D287AF09AE08120F96
:100BD1006A120EAB020AC5E50C64046003020AC581
:100BE100D2A4D2877F44120FE97F41120FE97F52CD
:100BF100120FE97F55120FE97F44120FE97F451269
:080C01000FE9120DFA020AC509
:100EAB007F01C286C296C284EF605E30820E3094A0
:100EBB000B308008C28CC286C296C2842082107509
:100ECB00101275115E751200751305D28CD2862027
:100EDB00941075100975112F751200751305D28CAE
:100EEB00D29620801075100475119775120075132A
:100EFB0005D28CD2842083B0D286D296D284AF090D
:090F0B00AE08120F6AE4FF809F9A
:010F140022BA
:100F5500F583E493F512740193F513FFAE127C014A
:050F65007D90120FD188
:100F6A00E4FDFCC3ED9FEC9E5015E4FBFA0BBB00BD
:0F0F7A00010AEB64054A70F50DBD00010C80E41F
:010F89002245
:100F8A005387BF75985053877FE4F5BA43A240F55B
:100F9A00BD75BEF075BF0275BD03759102759201EC
:0D0FAA00C20075B80175B701D2ACD2AF22FC
:03002300020FF1D8
:0D0FF100309802C298309904C299C20032B3
:060FE300E51493F50BFF7D
:080FE9002000FDD2008F9922C7
:100D0800E4F514750B20E50B6423600A90087E1245
:100D18000FE3051480F0E4F50AE50CB40106C2A758
:100D2800D2858014E50CB40206C285D2A78009E5F5
:100D38000CB40304C285C2A720A212C2A6E50CC344
:100D480094034005E4F50C8002050CD2A620A112FC
:100D5800C2A5E50CD394015005750C038002150C4F
:100D6800D2A57FC87E00120F6AE50A25E02400F5A7
:100D780082E43408F583E493FE740193FF4E603BEC
:100D88008E108F11E50A25E0244CF582E43408F52D
:100D980083E493FE740193FFAC0DAD0E120FD18E58
:100DA800128F13E50A90083293FF120F15D28CAFF9
:100DB80013AE12120F6A12100A802AE50A25E024DF
:100DC80000F582E43408F5837401937002E49370AB
:100DD80012C28CE50A25E0244CF582E43408120F8F
:100DE800558002C28C050AE50AC394195003020D06
:020DF8002122B6
:07100A00D286D296D28422A7
:100F1500BF4106D286D296C284BF4206D286C29609
:100F2500D284BF4306D286C296C284BF4406C28617
:100F3500D296D284BF4506C286D296C284BF4606E3
:100F4500C286C296D284BF4706C286C296C2842292
:100C0900E4F514750B20E50B6423600A9009311291
:100C19000FE3051480F0E4F50AE50CB40106C2A758
:100C2900D2858014E50CB40206C285D2A78009E5F5
:100C39000CB40304C285C2A720A212C2A6E50CC344
:100C490094034005E4F50C8002050CD2A620A112FC
:100C5900C2A5E50CD394015005750C038002150C4F
:100C6900D2A57FC87E00120F6AE50A25E024D7F5D0
:100C790082E43408F5837401937002E4936049E5D2
:100C89000A90091393FF120F15E50A25E024D7F5F9
:100C990082E43408F583E493F510740193F511E5C2
:100CA9000A25E0248DF582E43409F583E493FE7482
:100CB9000193FFAC0DAD0E120FD18E128F13D28C92
:100CC900120F6A12100A802AE50A25E024D7F58254
:100CD900E43408F5837401937002E4937012C28CB2
:100CE900E50A25E0248DF582E43409120F558002C6
:0F0CF900C28C050AE50AC3941E5003020C222286
:100DFA00E4F514750B20F50AE50CB40106C2A7D276
:100E0A00858014E50CB40206C285D2A78009E50CD8
:100E1A00B40304C285C2A720A212C2A6E50CC394D9
:100E2A00034005E4F50C8002050CD2A620A112C2EB
:100E3A00A5E50CD394015005750C038002150CD25C
:100E4A00A57FC87E00120F6AE50A25E024C9F5824B
:100E5A00E43409F583E493FE740193FF4E60358E02
:100E6A00108F11E50A25E02435F582E4340AF5836A
:100E7A00E493FE740193FFAC0DAD0E120FD18E12E6
:100E8A008F13D28C120F6AC28C751200751308AFB9
:100E9A0013120F61050AE50AC394365003020E02C3
:010EAA002225
:03000B00020FB72A
:100FB700C0E0C0D0B297C3E49511E49510F58CE575
:0A0FC70011F404F58AD0D0D0E03216
:03000000020FFEEE
:0C0FFE00787FE4F6D8FD758120020AA17E
:100FD100EF8DF0A4A8F0CF8CF0A428CE8DF0A42E34
:020FE100FE22EE
:00000001FF
