:10091200092F0621074A074A082E092F092F06E147
:10092200074A074A082E082E092F0000092F062120
:10093200074A074A082E082E092F092F0AEB0C42F4
:100942000000004000200020004000200020002085
:100952000040002000200020002000200020002075
:100962000020002000200020002000200020004065
:1009720000400020092F082E06E1082E0575057596
:100982000621092F082E074A092F0621062106E112
:10099200074A082E092F082E074A092F06E10621C9
:1009A200074A082E092F0000092F062106E1000040
:1009B2000010001000100010002000200040001065
:1009C2000010001000100020002000200010002065
:1009D2000010001000100010004000200030001035
:0C09E20000200020002000400040002009
:10080000750B0175083A750998758921D2AFD2A97F
:10081000E4F5A453912FF584750C41120B8BC2871C
:10082000E50BB40106C2A7D2858014E50BB402061D
:10083000C285D2A78009E50BB40304C285C2A720F4
:10084000A215C2A6E50BC394034005E4F50B800294
:10085000050B120BB8D2A620A115C2A5E50BD394A7
:10086000015005750B038002150B120BB8D2A520A1
:1008700083ACE50B640170417F53120C217F4D1254
:100880000C217F41120C217F53120C217F48120C46
:10089000217F20120C217F4D120C217F4F120C2141
:1008A0007F55120C217F54120C217F48120C217F9E
:1008B00020120C211209EE803BE50B6402703B7F95
:1008C00052120C217F49120C217F43120C217F4BC5
:1008D000120C217F20120C217F52120C217F4F120B
:1008E0000C217F4C120C217F4C120C217F20120C0A
:1008F00021120A82120BB802081EE50B6403600382
:1009000002081ED285D2A7D287120BB8120B16028C
:02091000081EBF
:100B1600751501C286C296C284E515603520820924
:100B2600D2867D07120B59C286209409D2967D057E
:100B3600120B59C296208009D2847D03120B59C22A
:100B4600842083D5D286D296D284120BB8E4F515CA
:020B560080C756
:010B5800227A
:060B59007C007F057E0018
:080B5F008E168F178C188D19FA
:100B6700E4F51AF51BC3E51B9517E51A95165013FF
:100B7700B297AF19AE18120BBC051BE51B70E60543
:030B87001A80E2EF
:010B8A002248
:040BB800AF09AE08CB
:100BBC00E4FDFCC3ED9FEC9E5015E4FBFA0BBB006F
:0F0BCC00010AEB64054A70F50DBD00010C80E4D1
:010BDB0022F7
:100B8B005387BF75985053877FE4F5BA43A240F55E
:100B9B00BD75BEF075BF0275BD03759102759201EF
:0D0BAB00C20075B80175B701D2ACD2AF22FF
:03002300020C08C4
:0D0C0800309802C298309904C299C200329F
:080C21002000FDD2008F992292
:1009EE00E4F50A7FE87E03120BBCE50A25E024122B
:1009FE00F582E43409F583E493FE740193FF4E60AF
:100A0E00278E0D8F0EE50A25E02444F582E4340985
:100A1E00F583E493FE740193FF7C017DF4120BF6D3
:100A2E008E0F8F10D28C8038E50A25E02412F582C5
:100A3E00E43409F5837401937002E4937027C28C39
:100A4E00E50A25E02444F582E43409F583E493F5C0
:100A5E000F740193F510AE0FFF7C017DF4120BF6AF
:100A6E00120BBC8002C28C050AE50AC3941950030E
:040A7E000209F12256
:100A8200E4F50A7FE87E03120BBCE50A25E0247632
:100A9200F582E43409F583E493FE740193FF4E601A
:100AA200278E0D8F0EE50A25E024B2F582E4340983
:100AB200F583E493FE740193FF7C017DF4120BF63F
:100AC2008E0F8F10D28C8038E50A25E02476F582CD
:100AD200E43409F5837401937002E4937027C28CA5
:100AE200E50A25E024B2F582E43409F583E493F5BE
:100AF2000F740193F510AE0FFF7C017DF4120BF61B
:100B0200120BBC8002C28C050AE50AC3941E500374
:040B1200020A85222C
:03000B00020BDC09
:100BDC00C0E0C0D0B297C3E4950EE4950DF58CE55A
:0A0BEC000EF404F58AD0D0D0E032F8
:03000000020C15DA
:0C0C1500787FE4F6D8FD7581200208000D
:100BF600EF8DF0A4A8F0CF8CF0A428CE8DF0A42E13
:020C0600FE22CC
:00000001FF
