:100B2100092F0621074A074A082E092F092F06E136
:100B3100074A074A082E082E092F0000092F06210F
:100B4100074A074A082E082E092F092F0AEB0C42E3
:100B51000000004000200020004000200020002074
:100B61000040002000200020002000200020002064
:100B71000020002000200020002000200020004054
:100B810000400020092F082E06E1082E0575057585
:100B91000621092F082E074A092F0621062106E101
:100BA100074A082E092F082E074A092F06E10621B8
:100BB100074A082E092F0000092F062106E100002F
:100BC1000010001000100010002000200040001054
:100BD1000010001000100020002000200010002054
:100BE1000010001000100010004000200030001024
:0C0BF100002000200020004000400020F8
:10093200750B0175083A750998758921D2AFD2A94C
:10094200E4F5A453912FF584750C41120C72C28701
:10095200E50BB40106C2A7D2858014E50BB40206EA
:10096200C285D2A78009E50BB40304C285C2A720C1
:10097200A215C2A6E50BC394034005E4F50B800261
:10098200050B120C9FD2A620A115C2A5E50BD3948C
:10099200015005750B038002150B120C9FD2A52086
:1009A20083ACE50B640170417F53120D087F4D1239
:1009B2000D087F41120D087F53120D087F48120D5A
:1009C200087F20120D087F4D120D087F4F120D086F
:1009D2007F55120D087F54120D087F48120D087FB3
:1009E20020120D08120800803BE50B6402703B7F69
:1009F20052120D087F49120D087F43120D087F4BDA
:100A0200120D087F20120D087F52120D087F4F121F
:100A12000D087F4C120D087F4C120D087F20120D1D
:100A220008120A44120C9F020950E50B640360038A
:100A3200020950D285D2A7D287120C9F120BFD0257
:020A4200095059
:100BFD00751501C286C296C284E51560352082093D
:100C0D00D2867D07120C40C286209409D2967D05AE
:100C1D00120C40C296208009D2847D03120C40C272
:100C2D00842083D5D286D296D284120C9FE4F515FA
:020C3D0080C76E
:010C3F002292
:060C40007C007F057E0030
:080C46008E168F178C188D1912
:100C4E00E4F51AF51BC3E51B9517E51A9516501317
:100C5E00B297AF19AE18120CA3051BE51B70E60573
:030C6E001A80E207
:010C71002260
:040C9F00AF09AE08E3
:100CA300E4FDFCC3ED9FEC9E5015E4FBFA0BBB0087
:0F0CB300010AEB64054A70F50DBD00010C80E4E9
:010CC200220F
:100C72005387BF75985053877FE4F5BA43A240F576
:100C8200BD75BEF075BF0275BD0375910275920107
:0D0C9200C20075B80175B701D2ACD2AF2217
:03002300020CEFDD
:0D0CEF00309802C298309904C299C20032B8
:080D08002000FDD2008F9922AA
:10080000E50BB40106C2A7D2858014E50BB402063D
:10081000C285D2A78009E50BB40304C285C2A72014
:10082000A215C2A6E50BC394034005E4F50B8002B4
:10083000050B120C9FD2A620A115C2A5E50BD394DF
:10084000015005750B038002150B120C9FD2A520D9
:100850008303E4F50AE4F50AE50BB40106C2A7D266
:10086000858014E50BB40206C285D2A78009E50B8A
:10087000B40304C285C2A720A212C2A6E50BC3948A
:10088000034005E4F50B8002050BD2A620A112C29D
:10089000A5E50BD394015005750B038002150BD20F
:1008A000A57FC87E00120CA3E50A25E02421F5826D
:1008B000E4340BF583E493FE740193FF4E60278EBE
:1008C0000D8F0EE50A25E02453F582E4340BF58301
:1008D000E493FE740193FF7C017DF4120CDD8E0F16
:1008E0008F10D28C8038E50A25E02421F582E4348B
:1008F0000BF5837401937002E4937027C28CE50AB0
:1009000025E02453F582E4340BF583E493F50F746A
:100910000193F510AE0FFF7C017DF4120CDD120C7B
:10092000A38002C28C050AE50AC394195003020889
:0209300058224B
:100A4400E4F50AE50BB40106C2A7D2858014E50BD0
:100A5400B40206C285D2A78009E50BB40304C2859B
:100A6400C2A720A212C2A6E50BC394034005E4F575
:100A74000B8002050BD2A620A112C2A5E50BD394CC
:100A8400015005750B038002150BD2A57FC87E00AB
:100A9400120CA3E50A25E02485F582E4340BF583E2
:100AA400E493FE740193FF4E60278E0D8F0EE50ACA
:100AB40025E024C1F582E4340BF583E493FE74014C
:100AC40093FF7C017DF4120CDD8E0F8F10D28C808D
:100AD40038E50A25E02485F582E4340BF5837401B6
:100AE400937002E4937027C28CE50A25E024C1F5D3
:100AF40082E4340BF583E493F50F740193F510AE9F
:100B04000FFF7C017DF4120CDD120CA38002C28C59
:0D0B1400050AE50AC3941E5003020A472299
:03000B00020CC321
:100CC300C0E0C0D0B297C3E4950EE4950DF58CE572
:0A0CD3000EF404F58AD0D0D0E03210
:03000000020CFCF3
:0C0CFC00787FE4F6D8FD758120020932F3
:100CDD00EF8DF0A4A8F0CF8CF0A428CE8DF0A42E2B
:020CED00FE22E5
:00000001FF
